:100000000C9434000C9446000C9446000C9446006A
:100010000C9446000C9446000C9446000C94460048
:100020000C9446000C9446000C9446000C946E0010
:100030000C9446000C9446000C9446000C94460028
:100040000C9446000C9446000C9446000C94460018
:100050000C9446000C9446000C9446000C94460008
:100060000C9446000C94460011241FBECFEFD8E03C
:10007000DEBFCDBF21E0A0E0B1E001C01D92A23003
:10008000B207E1F70E9448000C9495000C94000020
:10009000EFE6F0E0808182608083E0E8F0E080813C
:1000A0008C7F8083E1E8F0E08081886080838081BC
:1000B0008F7E808380818460808380818C7F808339
:1000C00084EF8093890084E28093880010928400FA
:1000D0001092850078948EEF84B9FFCF1F920F9213
:1000E0000FB60F9211242F933F938F939F9380917C
:1000F000000190910101892B11F02D9A01C02D98DA
:10010000209100013091010181E090E0821B930B6E
:1001100090930101809300019F918F913F912F91C6
:0E0120000F900FBE0F901F901895F894FFCF10
:00000001FF
